{"abi":[{"type":"constructor","inputs":[{"name":"_rustContract","type":"address","internalType":"address"}],"stateMutability":"nonpayable"},{"type":"receive","stateMutability":"payable"},{"type":"function","name":"balances","inputs":[{"name":"","type":"address","internalType":"address"}],"outputs":[{"name":"","type":"uint256","internalType":"uint256"}],"stateMutability":"view"},{"type":"function","name":"buyDice","inputs":[],"outputs":[],"stateMutability":"payable"},{"type":"function","name":"dicePrice","inputs":[],"outputs":[{"name":"","type":"uint256","internalType":"uint256"}],"stateMutability":"view"},{"type":"function","name":"nonce","inputs":[],"outputs":[{"name":"","type":"uint256","internalType":"uint256"}],"stateMutability":"view"},{"type":"function","name":"rollDice","inputs":[],"outputs":[],"stateMutability":"nonpayable"},{"type":"function","name":"rustContract","inputs":[],"outputs":[{"name":"","type":"address","internalType":"contract IRustDiceValidator"}],"stateMutability":"view"},{"type":"function","name":"withdraw","inputs":[],"outputs":[],"stateMutability":"nonpayable"},{"type":"event","name":"DiceRolled","inputs":[{"name":"player","type":"address","indexed":true,"internalType":"address"},{"name":"diceNumber","type":"uint256","indexed":false,"internalType":"uint256"},{"name":"reward","type":"uint256","indexed":false,"internalType":"uint256"}],"anonymous":false}],"bytecode":{"object":"0x6080604052662386f26fc1000060025534801561001a575f5ffd5b50604051610afd380380610afd833981810160405281019061003c91906100df565b805f5f6101000a81548173ffffffffffffffffffffffffffffffffffffffff021916908373ffffffffffffffffffffffffffffffffffffffff1602179055505061010a565b5f5ffd5b5f73ffffffffffffffffffffffffffffffffffffffff82169050919050565b5f6100ae82610085565b9050919050565b6100be816100a4565b81146100c8575f5ffd5b50565b5f815190506100d9816100b5565b92915050565b5f602082840312156100f4576100f3610081565b5b5f610101848285016100cb565b91505092915050565b6109e6806101175f395ff3fe608060405260043610610073575f3560e01c8063837e7cc61161004d578063837e7cc6146100fa5780638b12fe0014610110578063affed0e01461013a578063ecbaad2a146101645761007a565b806327e235e31461007e5780633ccfd60b146100ba57806358bcca3f146100d05761007a565b3661007a57005b5f5ffd5b348015610089575f5ffd5b506100a4600480360381019061009f919061056b565b61016e565b6040516100b191906105ae565b60405180910390f35b3480156100c5575f5ffd5b506100ce610183565b005b3480156100db575f5ffd5b506100e46101c9565b6040516100f19190610622565b60405180910390f35b348015610105575f5ffd5b5061010e6101ed565b005b34801561011b575f5ffd5b50610124610467565b60405161013191906105ae565b60405180910390f35b348015610145575f5ffd5b5061014e61046d565b60405161015b91906105ae565b60405180910390f35b61016c610473565b005b6003602052805f5260405f205f915090505481565b3373ffffffffffffffffffffffffffffffffffffffff166108fc4790811502906040515f60405180830381858888f193505050501580156101c6573d5f5f3e3d5ffd5b50565b5f5f9054906101000a900473ffffffffffffffffffffffffffffffffffffffff1681565b5f60035f3373ffffffffffffffffffffffffffffffffffffffff1673ffffffffffffffffffffffffffffffffffffffff1681526020019081526020015f20541161026c576040517f08c379a000000000000000000000000000000000000000000000000000000000815260040161026390610695565b60405180910390fd5b600160035f3373ffffffffffffffffffffffffffffffffffffffff1673ffffffffffffffffffffffffffffffffffffffff1681526020019081526020015f205f8282546102b991906106e0565b925050819055505f61271042336001546040516020016102db93929190610778565b604051602081830303815290604052805190602001205f1c6102fd91906107e1565b905060015f81548092919061031190610811565b91905055505f5f5f9054906101000a900473ffffffffffffffffffffffffffffffffffffffff1673ffffffffffffffffffffffffffffffffffffffff166374837eaf836040518263ffffffff1660e01b815260040161037091906105ae565b602060405180830381865afa15801561038b573d5f5f3e3d5ffd5b505050506040513d601f19601f820116820180604052508101906103af9190610882565b90505f5f90506006820361041257600280546103cb91906108ad565b90503373ffffffffffffffffffffffffffffffffffffffff166108fc8290811502906040515f60405180830381858888f19350505050158015610410573d5f5f3e3d5ffd5b505b3373ffffffffffffffffffffffffffffffffffffffff167f9f3d1596f73d6658ea5ee6155f974b2a6b43833dab39a0ca2e14656a57330fe8838360405161045a9291906108ee565b60405180910390a2505050565b60025481565b60015481565b60025434146104b7576040517f08c379a00000000000000000000000000000000000000000000000000000000081526004016104ae9061095f565b60405180910390fd5b600160035f3373ffffffffffffffffffffffffffffffffffffffff1673ffffffffffffffffffffffffffffffffffffffff1681526020019081526020015f205f828254610504919061097d565b92505081905550565b5f5ffd5b5f73ffffffffffffffffffffffffffffffffffffffff82169050919050565b5f61053a82610511565b9050919050565b61054a81610530565b8114610554575f5ffd5b50565b5f8135905061056581610541565b92915050565b5f602082840312156105805761057f61050d565b5b5f61058d84828501610557565b91505092915050565b5f819050919050565b6105a881610596565b82525050565b5f6020820190506105c15f83018461059f565b92915050565b5f819050919050565b5f6105ea6105e56105e084610511565b6105c7565b610511565b9050919050565b5f6105fb826105d0565b9050919050565b5f61060c826105f1565b9050919050565b61061c81610602565b82525050565b5f6020820190506106355f830184610613565b92915050565b5f82825260208201905092915050565b7f4e6f206469636520617661696c61626c650000000000000000000000000000005f82015250565b5f61067f60118361063b565b915061068a8261064b565b602082019050919050565b5f6020820190508181035f8301526106ac81610673565b9050919050565b7f4e487b71000000000000000000000000000000000000000000000000000000005f52601160045260245ffd5b5f6106ea82610596565b91506106f583610596565b925082820390508181111561070d5761070c6106b3565b5b92915050565b5f819050919050565b61072d61072882610596565b610713565b82525050565b5f8160601b9050919050565b5f61074982610733565b9050919050565b5f61075a8261073f565b9050919050565b61077261076d82610530565b610750565b82525050565b5f610783828661071c565b6020820191506107938285610761565b6014820191506107a3828461071c565b602082019150819050949350505050565b7f4e487b71000000000000000000000000000000000000000000000000000000005f52601260045260245ffd5b5f6107eb82610596565b91506107f683610596565b925082610806576108056107b4565b5b828206905092915050565b5f61081b82610596565b91507fffffffffffffffffffffffffffffffffffffffffffffffffffffffffffffffff820361084d5761084c6106b3565b5b600182019050919050565b61086181610596565b811461086b575f5ffd5b50565b5f8151905061087c81610858565b92915050565b5f602082840312156108975761089661050d565b5b5f6108a48482850161086e565b91505092915050565b5f6108b782610596565b91506108c283610596565b92508282026108d081610596565b915082820484148315176108e7576108e66106b3565b5b5092915050565b5f6040820190506109015f83018561059f565b61090e602083018461059f565b9392505050565b7f496e636f727265637420707269636500000000000000000000000000000000005f82015250565b5f610949600f8361063b565b915061095482610915565b602082019050919050565b5f6020820190508181035f8301526109768161093d565b9050919050565b5f61098782610596565b915061099283610596565b92508282019050808211156109aa576109a96106b3565b5b9291505056fea2646970667358221220aa12ed9e864a49e22ca09d4826274ad49705a22ffc7ece51f0cc1d04538d6d0d64736f6c634300081e0033","linkReferences":{}},"methodIdentifiers":{"balances(address)":"27e235e3","buyDice()":"ecbaad2a","dicePrice()":"8b12fe00","nonce()":"affed0e0","rollDice()":"837e7cc6","rustContract()":"58bcca3f","withdraw()":"3ccfd60b"},"id":0}